:020000040800F2
:1000000000000220B914000821140008231400087D
:100010002514000827140008291400080000000017
:100020000000000000000000000000002B14000889
:100030002D140008000000002F14000831140008DF
:100040000915000809150008091500080915000818
:100050000915000809150008091500080915000808
:1000600009150008091500080915000809150008F8
:1000700009150008091500080915000809150008E8
:1000800009150008091500080915000809150008D8
:1000900009150008091500080915000809150008C8
:1000A00009150008091500080915000809150008B8
:1000B00009150008091500080915000809150008A8
:1000C0000915000809150008091500080915000898
:1000D0000915000809150008091500080915000888
:1000E0000915000809150008091500080915000878
:1000F0000915000809150008091500080915000868
:100100000915000809150008091500080915000857
:10011000351400080915000809150008091500081C
:100120000915000809150008091500080915000837
:100130000915000809150008091500080915000827
:100140000915000809150008091500080915000817
:100150000915000809150008091500080915000807
:1001600009150008091500080915000809150008F7
:10017000091500080915000809150008000000000D
:0801800009150008091500082B
:1001880010B5054C237833B9044B13B10448AFF3C9
:1001980000800123237010BD0C0000200000000027
:1001A8006415000808B5034B1BB103490348AFF3B6
:1001B800008008BD00000000100000206415000841
:1001C80053B94AB9002908BF00281CBF4FF0FF31B6
:1001D8004FF0FF3000F07AB9ADF1080C6DE904CEAC
:1001E80000F006F8DDF804E0DDE9022304B070470A
:1001F8002DE9F0478C460D460446089E002B51D148
:100208008A4217466DD9B2FA82FEBEF1000F0BD0B2
:10021800CEF1200C01FA0EF520FA0CFC02FA0EF7CA
:100228004CEA050C00FA0EF44FEA174A250CBCFB01
:10023800FAF81FFA87F90AFB18CC45EA0C4508FBBF
:1002480009F3AB420AD9ED1908F1FF3280F0238196
:10025800AB4240F22081A8F102083D44ED1AA4B255
:10026800B5FBFAF00AFB105544EA054400FB09F90E
:10027800A14509D9E41900F1FF3380F00A81A145AD
:1002880040F2078102383C44A4EB090440EA0840E4
:100298000021002E61D024FA0EF40023346073602C
:1002A800BDE8F0878B4207D9002E54D0002186E89C
:1002B80021000846BDE8F087B3FA83F1002940F031
:1002C8008E80AB4202D3824200F2FA80841A65EB38
:1002D80003050120AC46002E3FD086E81010BDE88B
:1002E800F08712B90127B7FBF2F7B7FA87FEBEF11C
:1002F800000F34D1EB1B3A0C1FFA87FC0121B3FB2A
:10030800F2F8250C02FB183345EA03450CFB08F309
:10031800AB4207D9ED1908F1FF3002D2AB4200F227
:10032800D1808046ED1AA3B2B5FBF2F002FB10555E
:1003380043EA05440CFB00FCA44507D9E41900F185
:10034800FF3302D2A44500F2B8801846A4EB0C048F
:1003580040EA08409DE731463046BDE8F087CEF1D7
:10036800200405FA0EF307FA0EF720FA04F83A0CFF
:1003780025FA04F448EA0308B4FBF2F14FEA1845F9
:1003880002FB11441FFA87FC45EA044501FB0CF304
:10039800AB4200FA0EF409D9ED1901F1FF3080F0F3
:1003A8008A80AB4240F2878002393D44EB1A1FFA3B
:1003B80088F5B3FBF2F002FB103345EA034500FB76
:1003C8000CF3AB4207D9ED1900F1FF386FD2AB42FD
:1003D8006DD902383D44EB1A40EA01418FE7C1F17B
:1003E800200722FA07F88B4005FA01F448EA0303CC
:1003F80020FA07FE4FEA134CFD404EEA040EB5FB07
:10040800FCF94FEA1E440CFB19551FFA83F844EA1D
:10041800054509FB08F4AC4202FA01F200FA01FAB8
:1004280008D9ED1809F1FF3043D2AC4241D9A9F1FE
:1004380002091D442D1B1FFA8EFEB5FBFCF00CFBB8
:1004480010554EEA054400FB08F8A04507D9E41802
:1004580000F1FF3529D2A04527D902381C4440EACB
:100468000940A4EB0804A0FB02894C45C6464D464A
:1004780015D312D056B1BAEB0E0364EB050404FA97
:1004880007F7CB401F43CC40376074600021BDE8BC
:10049800F0871846F8E69046E0E6C245EAD2B8EB9F
:1004A800020E69EB03050138E4E72846D7E7404622
:1004B80091E78146BEE7014678E702383C4445E7C4
:1004C800084608E7A8F102083D442BE7704700BF3B
:1004D80038B50E4A0E4B054618784FF47A73B3FBBD
:1004E800F0F31068B0FBF3F000F096F8044658B942
:1004F8000F2D09D8024629464FF0FF3000F04AF880
:10050800044B20461D6038BD012038BD080000207E
:10051800000000200400002008B50B4B1A6842F4C4
:1005280000721A601A6842F480621A601A6842F40B
:1005380080721A60032000F01BF80020FFF7C8FF44
:1005480000F010FF002008BD003C0240034A044BA5
:1005580011681B780B441360704700BF2C00002003
:1005680000000020014B1868704700BF2C000020D5
:10057800074AD36823F4E0631B041B0C43F0BF63F2
:10058800000243F4003300F4E0600343D360704793
:1005980000ED00E0174B30B5DC68C4F30224C4F169
:1005A8000703251D042B28BF0423062D4FF0010542
:1005B80005FA03F303F1FF338CBF033C0024194011
:1005C800A14005FA04F4013C2240002842EA010255
:1005D8004FEA0212ADBF00F1604000F00F00064B79
:1005E80000F56140B5BFD2B2D2B21A5480F80023E8
:1005F80030BD00BF00ED00E014ED00E0002808DB8E
:100608004209012300F01F0003FA00F0014B43F8F0
:100618002200704700E100E00138B0F1807F0AD283
:10062800064B074A5860F02182F823100020072261
:1006380098601A6070470120704700BF10E000E022
:1006480000ED00E090F83530022B03D0802343659D
:10065800012070470268052380F83530136823F0BD
:1006680001031360002070472DE9F04F85B00B6837
:10067800DFF8AC81684ADFF8AC91019300230124CC
:10068800019D9C402540AC4240F0B0804C6824F06D
:10069800100C0CF1FF36012E4FEA430E12D8876872
:1006A800032606FA0EF627EA0607CE6806FA0EF6BD
:1006B8003E4386604768C4F3001627EA05079E4054
:1006C8003E4346600326C76806FA0EF6F64307EA75
:1006D800060A8F6807FA0EF747EA0A07BCF1020F05
:1006E800C76016D14FEAD30A00EB8A0A03F0070B5A
:1006F800DAF820704FEA8B0B4FF00F0C0CFA0BFC5A
:1007080027EA0C0C0F6907FA0BF747EA0C07CAF837
:10071800207007683E4004F0030707FA0EFE4EEA11
:1007280006060660E60061D54FF0000BCDF80CB068
:10073800D8F84470394E47F48047C8F84470D8F860
:10074800447007F480470397039F23F0030707F1DA
:10075800804707F59C3703F0030CD7F808A04FEA49
:100768008C0C4FF00F0E0EFA0CFEB0422AEA0E0E59
:1007780043D006F58066B04241D006F58066B042A7
:100788003FD006F58066B0423DD006F58066B0429F
:100798003BD048453BD006F50066B04239D006F557
:1007A8008066B04214BF0826072606FA0CF646EA09
:1007B8000E06BE601668EF4314F4803F0CBF3E403F
:1007C8002E431660566814F4003F0CBF3E402E437B
:1007D8005660966814F4801F0CBF3E402E43966006
:1007E800D668A40254BF3E402E43D6600133102B76
:1007F8007FF445AF05B0BDE8F08F5E46D5E701262A
:10080800D3E70226D1E70326CFE70426CDE705265E
:10081800CBE70626C9E700BF003C014000000240C4
:1008280000380240001402400AB18161704709048F
:10083800FBE7436931EA030308BF09048161704794
:100848002DE9F341044608B901203FE00368DD07BC
:1008580010D4236898075AD423681A0700F19C809B
:1008680023685B0700F1BA80A069002840F01B816B
:1008780000202BE0A44B9A6802F00C02042A07D04F
:100888009A6802F00C02082A0AD15B68590207D557
:100898009D4B1B689A03DCD56368002BD9D1D3E73D
:1008A8006368994DB3F5803F13D12B6843F48033C7
:1008B8002B60FFF757FE944D06462B689B03C8D460
:1008C800FFF750FE801B6428F7D9032002B0BDE86B
:1008D800F081B3F5A02F04D12B6843F480232B605B
:1008E800E3E72A6822F480322A602A6822F4802208
:1008F8002A60002BDDD1FFF735FE06462B689F03E3
:10090800A7D5FFF72FFE801B6428F7D9DDE77E4BBC
:100918009A6812F00C0F07D09A6802F00C02082AA5
:1009280011D15B685E020ED4774B1A68950702D521
:10093800E268012A88D11A68216922F0F80242EA9D
:10094800C1021A6088E7E268704BB2B101221A60EE
:10095800FFF708FE6C4D06462B68980707D52B68ED
:10096800226923F0F80343EAC2032B6074E7FFF718
:10097800F9FD801B0228EFD9A7E71A60FFF7F2FDFF
:10098800614D06462B6899077FF566AFFFF7EAFDCC
:10099800801B0228F6D998E762695D4B7AB101227B
:1009A8001A60FFF7DFFD584D06466B6F9F073FF54E
:1009B80057AFFFF7D7FD801B0228F6D985E71A60E5
:1009C800FFF7D0FD504D06466B6F98077FF548AF8F
:1009D800FFF7C8FD801B0228F6D976E74A4B1A6C48
:1009E80012F0805228D101921A6C42F080521A6497
:1009F8001B6C03F080530193019B0126454D2B6826
:100A0800D9051BD5A368404D012B27D12B6F43F087
:100A180001032B67FFF7A6FD3B4D074641F28838D7
:100A28002B6F9B0739D5002E3FF41EAF364A136C47
:100A380023F08053136417E70026DFE72B6843F49D
:100A480080732B60FFF78EFD07462B68DA05D9D433
:100A5800FFF788FDC01B0228F7D936E7052B04D11C
:100A68002B6F43F004032B67D0E72A6F22F00102B3
:100A78002A672A6F22F004022A67002BCAD1FFF7DF
:100A880071FD41F2883807462B6F9807CBD5FFF7E1
:100A980069FDC01B4045F7D917E7FFF763FDC01B89
:100AA8004045BDD911E7184DAB6803F00C03082B7E
:100AB80047D0194E00230228336035D1FFF752FD85
:100AC80007462B68990129D4226AE3691343626AAD
:100AD80043EA8213E26A43EA0263A26A0A4C5208B2
:100AE800013A43EA02436B6001233360FFF73AFDA2
:100AF800054623689A013FF5BBAEFFF733FD401B5F
:100B08000228F6D9E1E600BF00380240000047425B
:100B1800800E47420070004060004742FFF722FD08
:100B2800C01B0228CDD9D0E6FFF71CFD04462B6870
:100B38009B017FF59DAEFFF715FD001B0228F6D936
:100B4800C3E601283FF4C2AEA868E36900F4800256
:100B58009A427FF479AE226A00F03F0393427FF411
:100B680073AE626A47F6C073034093427FF46CAE7B
:100B7800A26A00F4403393427FF466AEE36A00F061
:100B88007060C01A18BF0120A0E600BF134908B55D
:100B98008B6803F00C03042B03D0082B03D01048F8
:100BA80008BD104808BD4A684B68496813F48003BB
:100BB80014BF0C480A48C1F3881118BF002302F07B
:100BC8003F02A1FB0001FFF7FBFA044B5B68C3F38C
:100BD800014301335B00B0FBF3F008BD003802406D
:100BE8000024F40000127A002DE9F0410D46044675
:100BF80010B90120BDE8F081444B1A6802F00F02D9
:100C08008A4229D321688F072ED4C80741D43F4B85
:100C18001A6802F00F02954267D3226851076DD413
:100C2800130707D53A4A2169936823F4604343EAD6
:100C3800C1039360FFF7AAFF354B364A9B68C3F39D
:100C48000313D35CD840344B1860344B1868FFF753
:100C58003FFC0020BDE8F081CAB21A701B6803F09F
:100C68000F039942C5D1CDE7294B11F0040F1EBFE0
:100C78009A6842F4E0529A600E0742BF9A6842F4BA
:100C880060429A609A68A06822F0F00202439A6073
:100C9800BBE762681E4B012A1DD11B6813F4003F95
:100CA800A7D01B4EB36823F003031343B360FFF7C9
:100CB80059FC41F288380746B368626803F00C03B0
:100CC800B3EB820FA3D0FFF74DFCC01B4045F3D90F
:100CD8000320BDE8F081911E01291B6802D813F09A
:100CE800007FDDE713F0020FDAE7EAB21A701B683B
:100CF80003F00F039D427FF47CAF8EE70449E06860
:100D08008B6823F4E05303438B6089E7003C02407F
:100D1800003802408E15000808000020040000205A
:100D2800044B054A9B68C3F38223D35C034A1068CB
:100D3800D8407047003802409E150008080000207F
:100D4800044B054A9B68C3F34233D35C034A1068DB
:100D5800D8407047003802409E150008080000205F
:100D68000368DA6822F49072DA605A6922F00102A4
:100D78005A61202380F83A307047000038B503687C
:100D8800C1681A69044622F440520A431A61256967
:100D9800A268D968C0692A43656921F416412A43C3
:100DA80021F00C0102430A43DA605A69A16922F46E
:100DB80040720A43B0F5004F5A61254A29D193423F
:100DC80003D002F58062934220D1FFF7B9FF626831
:100DD800256892184FF000034FF019015B41A0FB02
:100DE8000101FFF7EDF96421B0FBF1F401FB1403F5
:100DF800DB003233B3FBF1F303F007025B0002EBD5
:100E0800041203F4F8731344AB6038BDFFF788FF8E
:100E1800DDE7934202D00F4A934216D1FFF790FFC5
:100E28006368256819219A00A0FB01019B0FFFF751
:100E3800C7F96422B0FBF2F102FB11031B01323344
:100E4800B3FBF2F303EB0113DEE7FFF769FFE7E714
:100E58000010014000140140F8B504460E4617463C
:100E68001D4621680B6836EA030301D10020F8BD4E
:100E78006B1CF7D095B92368DA6822F4D072DA606F
:100E88005A6922F001025A61202384F8393084F823
:100E98003A30002384F838300320F8BDFFF762FBAE
:100EA800C01B8542DDD2E6E710B5044640B390F892
:100EB800393003F0FF021BB980F8382000F06EFAD1
:100EC8002268242384F83930D36823F40053D3608C
:100ED8002046FFF753FF23681A6922F490421A61EB
:100EE8005A6922F02A025A61DA6842F40052DA603A
:100EF80000202023E06384F8393084F83A3010BDAC
:100F0800012010BD2DE9F8431F4690F83930202BF9
:100F180004460D46904651D100294CD0002A4AD0AB
:100F280090F83830012B49D0012380F838304FF041
:100F380000092123C0F83C9080F83930FFF712FBF4
:100F4800A4F824800646A4F8268084F83890E38C18
:100F58009BB25BB93B46324640212046FFF77CFFF7
:100F6800A0B9202384F83930BDE8F883E38C013B2D
:100F78009BB2E384A368B3F5805F32463B464FF0EB
:100F8800800120460ED1FFF767FF10B10320BDE8AE
:100F9800F8832B882268C3F308035360236943B995
:100FA8000235D4E7FFF758FF0028EFD123682A78E5
:100FB8005A600135CBE70120BDE8F8830220BDE87F
:100FC800F88390F83A30202B20D1E9B1E2B190F8BB
:100FD8003830012B1AD0C285828500232222C363B0
:100FE80080F83A2002688162D16880F8383041F48C
:100FF8008071D160516941F001015161D16841F0BE
:101008002001D160184670470120704702207047C0
:101018007047704790F83A30222B10B536D1836864
:1010280001690268B3F5805F836A23D15268E9B920
:10103800C2F3080223F8022B8362C48D013CA4B2D8
:10104800C4858CB90368DA6822F02002DA60DA68AD
:1010580022F48072DA605A6922F001025A61202370
:1010680080F83A30FFF7D5FF002010BDD2B223F840
:10107800012BE1E721B9591C526881621A70DCE73B
:101088005268591C816202F07F02F7E7022010BD06
:101098007047000003681A68D96870B516070446D7
:1010A8005D6907D196065CD58D065AD5BDE87040B6
:1010B800FFF7B0BF15F0010502D111F4907F50D0B1
:1010C800D00705D5CB0542BFE36B43F00103E363CB
:1010D800560704D51DB1E36B43F00203E3639007A1
:1010E80004D51DB1E36B43F00403E363130706D58E
:1010F8008E0600D41DB1E36B43F00803E363E36B92
:10110800002B66D0950604D5880602D52046FFF741
:1011180081FF23685D69E26B1107204602D415F050
:1011280040051AD0FFF71CFE23685A69520610D5ED
:101138005A69606B22F040025A6150B1254B036531
:10114800FFF780FA002844D0606BBDE87040036D5B
:1011580018472046FFF79CFF70BDFFF799FFE5632E
:1011680070BD160627D50D0625D594F83920212AF5
:101178002FD1A268B2F5805F226A17D11188C1F316
:1011880008015960216979B902322262E28C013A78
:1011980092B2E284EAB9DA6822F08002DA60DA68A8
:1011A80042F04002DA6070BD0132EEE7511C216264
:1011B80012785A60EAE750060BD54A0609D5DA686C
:1011C80022F04002DA60202384F839302046FFF705
:1011D8001FFF70BDE111000808B5806B0023C385AF
:1011E800C384FFF755FF08BD30B595B03022002104
:1011F80008A800F0ABF90021142203A800F0A6F912
:1012080000241C4B01941A6C42F080521A641B6C27
:1012180003F080530193019B174B02941A6842F420
:1012280080421A601B680F9403F480430293029B68
:1012380001230B9310230C9308231093A823022552
:10124800119308A80423139308950E951295FFF798
:10125800F7FA0F2303934FF4A053069305214FF495
:10126800805303A8049505940793FFF7BDFC15B0B8
:1012780030BD00BF003802400070004000B589B0A2
:10128800FFF74AF9FFF7B0FF1422002103A800F086
:101298005DF900252C4B00951A6B2C482C4C2D4ED3
:1012A80042F080021A631A6B02F080020092009AE0
:1012B80001951A6B42F001021A631A6B02F00102DF
:1012C8000192019A02951A6B42F008021A631B6B8D
:1012D80003F008032A4602934FF47041029BFFF77C
:1012E800A3FA4FF4704303A9039318480595012303
:1012F80004930695FFF7B8F9174AA5604FF4E13350
:1013080084E80C0020460C23E56025616361A56133
:10131800E561FFF7C9FD22681049D36843F020034F
:10132800D360204664230E220D4CFFF7EBFD2546C3
:101338002378012BFDD16423022231460448FFF7AC
:10134800E1FD00232B70F3E700380240000C024057
:10135800300000208B150008004C00407C15000868
:101368002800002082B00C4B002100915A6C42F4F6
:1013780080425A645A6C02F480420092009A0191A9
:101388001A6C42F080521A641B6C03F0805301936C
:10139800019B02B0704700BF0038024010B50446F8
:1013A80088B01422002103A800F0D0F82268184B56
:1013B8009A422BD103F5F633002401941A6C154890
:1013C80042F400221A641A6C02F400220192019A73
:1013D80002941A6B42F001021A631B6B03F00103BB
:1013E8000293029B02220323039304920693012291
:1013F800082303A905920793FFF736F934202246FC
:101408002146FFF7C7F83420FFF7F8F808B010BDF9
:10141800004C0040000002407047FEE7FEE7FEE790
:10142800FEE7704770477047FFF790B870B5134EE6
:10143800134C1448144D01223146FFF7C2FD1148E0
:10144800FFF728FE23783278EA540133DBB2012B08
:10145800237012D14FF480510C48FFF7EAF9642346
:1014680002220B490748FFF74DFD64230222294653
:101478000448FFF747FD0023237070BD7200002069
:10148800290000203000002070000020000C0240DD
:101498008B150008054BD3F8882042F47002C3F876
:1014A80088204FF000629A60704700BF00ED00E0AE
:1014B800DFF834D0002103E00C4B5B584350043173
:1014C8000B480C4B42189A42F6D30B4A02E0002311
:1014D80042F8043B094B9A42F9D3FFF7DBFF00F0CF
:1014E80011F8FFF7CBFE704700000220B81500087E
:1014F800000000200C0000200C00002074000020D8
:10150800FEE7000070B50D4E0D4CA41BA41000257D
:10151800A54209D10B4E0C4C00F020F8A41BA410D6
:101528000025A54205D170BD56F8253098470135EC
:10153800EEE756F8253098470135F2E7B015000870
:10154800B0150008B0150008B41500080244034699
:10155800934200D1704703F8011BF9E7F8B500BFC3
:10156800F8BC08BC9E467047F8B500BFF8BC08BC7C
:041578009E467047D4
:10157C0073656C616D756E616C65796B756D006111
:10158C0073000000000000000000010203040607C5
:0C159C0008090000000001020304000028
:0815A80050ECFF7F0100000080
:0415B000AD01000881
:0415B40089010008A1
:0C15B80001000000100000000024F400FE
:04000005080014B922
:00000001FF
